:020000040800F2
:10000000C0040020A90100082F11000817100008E3
:100010002D110008E10200082D1600080000000064
:10002000000000000000000000000000EF120008C7
:10003000E302000800000000ED120008F1120008C1
:10004000C3010008C3010008C3010008C301000880
:10005000C3010008C3010008C3010008C301000870
:10006000C3010008C3010008C3010008C301000860
:10007000C3010008C3010008C3010008C301000850
:10008000C3010008C3010008C3010008000000000C
:10009000000000000000000000000000C301000894
:1000A00099130008C3010008C3010008C301000838
:1000B000C3010008C3010008C3010008C301000810
:1000C000C3010008C3010008C3010008C301000800
:1000D000C3010008C3010008C301000800000000BC
:1000E000C3010008C3010008C301000800000000AC
:1000F000000000000000000000000000C301000834
:1001000000000000C3010008C3010008C30100088B
:1001100000000000000000000000000000000000DF
:10012000C3010008C3010008C3010008C30100089F
:10013000C3010008000000000000000000000000F3
:10014000000000000000000000000000C3010008E3
:10015000C3010008C3010008C3010008C30100086F
:10016000C3010008C30100080000000000000000F7
:10017000000000000000000000000000000000007F
:1001800000000000C30100080000000000000000A3
:10019000C3010008DFF80CD000F090F800480047D9
:1001A000FD170008C00400200648804706480047A5
:1001B000FEE7FEE7FEE7FEE7FEE7FEE7FEE7FEE717
:1001C000FEE7FEE789130008950100082DE9F05FBE
:1001D0000546002092469B468846064681464024B6
:1001E0001BE0284641464746224600F057F8534652
:1001F0005A46C01A914110D311461846224600F0C3
:100200003EF82D1A67EB01084F46224601200021D7
:1002100000F035F817EB00094E41201EA4F101044F
:10022000DFDC484631462A464346BDE8F09FD2B25D
:1002300001E000F8012B491EFBD270470022F6E7CF
:1002400010B513460A4604461946FFF7F0FF20464C
:1002500010BD30B50B46014600202022012409E0E4
:1002600021FA02F59D4205D303FA02F5491B04FA6F
:1002700002F52844151EA2F10102F1DC30BD202A4E
:1002800004DB203A00FA02F1002070479140C2F1ED
:10029000200320FA03F3194390407047202A04DB1F
:1002A000203A21FA02F00021704721FA02F3D040EF
:1002B000C2F120029140084319467047064C074D91
:1002C00006E0E06840F0010394E807009847103426
:1002D000AC42F6D3FFF762FF7018000890180008D0
:1002E000FEE7704772B6FEE770B5044600F008F905
:1002F0000546601C02D004480078044400F000F970
:10030000401BA042FAD370BD000000202DE9F84F39
:10031000DFF8B8A10022012403254FF00F090AF1EC
:10032000040BAAF1040E00BF0B6804FA02F6334076
:10033000B34273D10F7907F00307012F01D0022FC9
:1003400016D187684FEA420805FA08FC27EA0C072D
:10035000D1F80CC00CFA08FC4CEA070CC0F808C035
:100360004768B7430E79C6F3001696403E43466091
:100370000E79F643B6070DD0C768560005FA06FC9D
:1003800027EA0C07D1F808C00CFA06FC4CEA070C67
:10039000C0F80CC00E7906F00306022E10D1D60864
:1003A00000EB8608D8F8206057074FEAD76C09FAA7
:1003B0000CF7BE430F6907FA0CF73743C8F82070F3
:1003C00006684FEA420C05FA0CF7BE430F7907F0B6
:1003D000030707FA0CF7374307604E6816F4403FEF
:1003E0006DD03B4E376847F480473760366822F05F
:1003F000030706F480460096364E07EB060CDCF841
:10040000086897073F0F09FA07F826EA0806DFF899
:10041000C880404503D14FF000081EE04FE0DFF8F0
:10042000BC80404502D14FF0010816E0DFF8B080F3
:10043000404502D14FF002080FE0DFF8A8804045A8
:1004400002D14FF0030808E0DFF89C80404502D15C
:100450004FF0040801E04FF0070808FA07F848EAEF
:100460000608CCF80888DAF800605746D1F804C0CE
:100470009E435FEACC2C00D51E433E60DBF8006053
:100480005F46D1F804C09E435FEA8C2C00D51E4322
:100490003E60DEF800607746D1F804C09E435FEA14
:1004A0008C3C00D51E433E60084F083F3E68D1F8A3
:1004B00004C09E435FEACC3C00D51E433E60521C04
:1004C000102AFFF431AFBDE8F88F0000083C01406E
:1004D0004438024000300140000002400004024065
:1004E00000080240000C0240001002400069084071
:1004F00000D0012070470AB1816170470904FBE711
:1005000001488068704700000000002002488168B0
:100510000278114481607047000000200B4810B53C
:10052000016841F400710160016841F4806101607B
:10053000016841F480710160032000F06FF80F2022
:1005400000F006F800F024F8002010BD003C024046
:1005500070B50D4D04464FF47A712878B1FBF0F078
:100560000A490968B1FBF0F000F00CFB48B9102C07
:1005700007D200222146501E00F030F800206C60A7
:1005800070BD012070BD0000000000200C000020A4
:100590000A4808B5016841F480410160006800F430
:1005A000804000900548001F016841F080510160C3
:1005B000006800F08050009008BD00004438024000
:1005C000002809DB00F01F02012191404009800052
:1005D00000F1E020C0F8001170470000F0B40E4BAD
:1005E0001B680C46C3F30223C3F10705042D00D991
:1005F0000425191D072901D2002300E0DB1E012676
:1006000006FA05F1491E214099409E40761E16408B
:100610003143F0BC01F01CB80CED00E0064900F0DD
:10062000070208684FF6FF03184040EA0220034A19
:1006300010430860704700000CED00E00000FA0570
:100640002DE9F0470E46050065D0DFF81481D8F893
:100650000000F7B200F00700B04207D288F800703F
:10066000D8F8000000F00700B04254D128683D4C93
:10067000810712D5400703D5206840F4E050206080
:100680002878000703D5206840F460402060206887
:10069000A96820F0F000084320602878C0072DD01A
:1006A000304968680839012812D0022813D003287D
:1006B00011D00968890700292DDA216821F003018A
:1006C00001432160FFF71CFF814641F2883A0EE0AA
:1006D00009688903EFE709688901ECE7FFF710FF74
:1006E000A0EB0901514502D90320BDE8F08720683D
:1006F000696800F00C00B0EB810FEFD1D8F8001062
:10070000404601F00701B14207D90770006800F0C8
:100710000700B04201D00120E7E72878400705D55F
:100720002068E96820F4E05008432060287800073A
:1007300006D52068296920F4604040EAC1002060A5
:1007400000F038F82168084AC1F30311515CC84031
:100750000649086006480068FFF7FAFE0020C4E773
:10076000003C024008380240581800080C000020E5
:10077000040000200448054900680968044AC1F3E0
:100780008221515CC84070470C00002008380240AC
:10079000681800080448054900680968044AC1F35C
:1007A0004231515CC84070470C00002008380240BC
:1007B00068180008154810B5006810F00C021448BD
:1007C00013D01449042A0FD0082A0ED10F4C241F2D
:1007D0002268236802F03F025B0207D52068C0F35D
:1007E0008810A0FB010106E0084610BD2168C1F396
:1007F0008811A1FB00010023FFF7E8FC2168C1F389
:100800000141491C4900B0FBF1F010BD083802401D
:100810000024F40040787D012DE9F84F04006ED0EB
:100820002078DFF84C93C007A9F104054AD009F1FC
:1008300004000168C1F38101012908D00068C0F3F8
:10084000810002280AD1D9F80000400206D52868A4
:10085000800337D560680028E1D033E06068B0F5E8
:10086000803F10D0B0F5A02F286810D020F4803041
:100870002860286820F4802028606068A8B1FFF70D
:100880003FFE06460DE0286840F48030F4E740F46F
:1008900080202860F7E700BFFFF732FE801B642846
:1008A00073D828688003F7D50CE0FFF729FE0646C9
:1008B00005E000BFFFF724FE801B6428F0D82868FD
:1008C0008003F7D42078DFF8AC8280074FF0000A6D
:1008D0003ED5A748001D016811F00C0F08D0006834
:1008E000C0F3810002280BD1D9F80000400207D4E0
:1008F0002868800716D5E068012800D112E033E1AE
:10090000E068B8B10120C8F80000FFF7F9FD06461D
:1009100005E000BFFFF7F4FD801B0228C0D828685F
:100920008007F7D52868216920F0F80040EAC10067
:1009300028600DE0C8F800A0FFF7E2FD064604E0DD
:10094000FFF7DEFD801B02281FD828688007F7D438
:100950002078000722D5864F87486169703771B1CA
:1009600001210160FFF7CCFD064604E0FFF7C8FD5A
:10097000801B022809D838688007F7D50EE0C0F838
:1009800000A0FFF7BDFD064605E082E0FFF7B8FDD9
:10099000801B02287DD838688007F7D4207840076C
:1009A00068D5DFF8CCB100270BF13C0BDBF8000079
:1009B000C0000BD4DBF8001041F08051CBF80010E0
:1009C000DBF80000012700F0805000906B4E30688B
:1009D000C00510D4306840F480703060FFF790FD9F
:1009E000009005E0FFF78CFD0099401A022850D8CE
:1009F0003068C005F6D55E4EA0686C3601280FD071
:100A00000528306810D020F001003060306820F0F8
:100A100004003060A068B8B1FFF772FD00900FE0ED
:100A2000306840F00100F4E740F004003060F7E780
:100A3000FFF766FD0099411A41F28830814266D87D
:100A400030688007F4D50EE0FFF75AFD009007E00C
:100A5000FFF756FD0099411A41F28830814256D87D
:100A600030688007F4D42FB1DBF8001021F08051FA
:100A7000CBF80010A069C8B33D49091D0968C1F34E
:100A8000810102294AD00228504607D0C8F86000E8
:100A900000E03CE0FFF734FD04463BE04746C8F881
:100AA0006000FFF72DFD064605E000BFFFF728FDBB
:100AB000801B02282BD828688001F7D4D4E90701CD
:100AC0000843A16A2E4A490802EB0141626A41EAE1
:100AD0008211084394F82C1040EA0161C9F8001013
:100AE00001203866FFF70CFD044606E03EE000BF3B
:100AF000FFF706FD001B022809D828688001F7D5FA
:100B000034E000BFFFF7FCFC001B022802D90320E1
:100B1000BDE8F88F28688001F4D427E00128F7D0D9
:100B2000D9F80000E26900F4800191421CD1226AE8
:100B300000F03F01914217D147F6C071626A01404F
:100B4000B1EB821F10D1A26A4FF0FF3300F44031A5
:100B500003EB5202B1EB024F06D194F82C1000F0D7
:100B60007060B0EB016F01D00120D1E70020CFE72A
:100B70000438024000004742800E474200700040A7
:100B80000000FFFF10B5401EB0F1807F01D30120AF
:100B900010BD4FF0E02460610F21601700F058FD98
:100BA0000020A06107202061002010BD7047704721
:100BB00010B5040003D094F83D0010B107E0012007
:100BC00010BD002084F83C00204600F01FF80220F1
:100BD00084F83D00211D206800F0E4FB012084F82A
:100BE000460084F83E0084F83F0084F8400084F812
:100BF000410084F8420084F8430084F8440084F8FB
:100C0000450084F83D00002010BD000008B50068D4
:100C10000B49884212D10B48016841F480310160D0
:100C20000068002200F48030009011461820FFF781
:100C3000D5FCBDE808401820FFF7C2BC08BD000085
:100C4000004001404438024070B5044690F83C0032
:100C50000025012817D0012684F83C60022084F882
:100C60003D002068826822F0770222F47F42826091
:100C70000868502838D00DDC20284FD005DC90B310
:100C8000102811D14AE0022070BD302846D04028FB
:100C90000AD13BE060282FD070280DD0B0F5805FDE
:100CA00003D0B0F5005F12D0012584F83D6000202C
:100CB00084F83C00284670BDCB68D1E9012120684A
:100CC00000F0BCFB2068816841F0770109E0CB6847
:100CD000D1E90121206800F0B1FB2068816841F46E
:100CE00080418160E1E719E0CA684968206800F046
:100CF000B7FB5021206806E0CA684968206800F008
:100D0000C0FB6021206800F0A3FBCEE7CA684968F9
:100D1000206800F0A5FB40212068F4E72268014626
:100D20001046F0E7704770B50446006801694FF05F
:100D30000005C943890715D4C168C943890711D47F
:100D4000E91E016101202077206880698007204624
:100D500002D0FFF7E7FF04E000F098F8204600F02B
:100D600096F8257720680169C943490717D4C168F7
:100D7000C943490713D46FF00401016102202077B1
:100D80002068806910F4407F204602D0FFF7CAFF38
:100D900004E000F07BF8204600F079F82577206821
:100DA0000169C943090716D4C168C943090712D4A8
:100DB0006FF008010161042020772068C069800776
:100DC000204602D0FFF7AEFF04E000F05FF82046B7
:100DD00000F05DF8257720680169C943C90617D47A
:100DE000C168C943C90613D46FF01001016108201E
:100DF00020772068C06910F4407F204602D0FFF7BA
:100E000091FF04E000F042F8204600F040F825771A
:100E100020680169C943C90708D1C168C943C90726
:100E200004D1891E0161204600F032F82068016972
:100E3000C943090609D4C168C943090605D46FF03E
:100E4000800101612046FFF7B1FE20680169C943B6
:100E5000490609D4C168C943490605D46FF0400169
:100E60000161204600F015F820680169C943890630
:100E70000BD4C168C943890607D46FF02001016112
:100E80002046BDE87040FFF792BE70BD70477047C6
:100E90007047704770B5040004D094F83D000025F9
:100EA00010B106E0012070BD84F83C50204600F0EF
:100EB00023F8242084F83D002068C16821F4005103
:100EC000C160204600F0F0FA2068016921F49041E9
:100ED00001612068416921F02A0141612068C168EF
:100EE00041F40051C1602564202084F83D0084F85D
:100EF0003E00002070BD000010B586B004461421ED
:100F00006846FFF79BF914492068884221D11348AD
:100F10000021026842F010020260006800F0100038
:100F200005900E481438026842F001020260006821
:100F300000F0010005904FF4C06000900220CDE960
:100F40000101032003900720049069460448FFF73D
:100F5000DDF906B010BD0000001001404438024029
:100F6000000002402DE9F843044690F83D001F467A
:100F700016460D4620284CD1C5B1BEB194F83C00B0
:100F8000012846D0012084F83C004FF00008C4F846
:100F90004080212084F83D00FFF7B2FAA684814604
:100FA000E684A068B0F5805F03D004E00120BDE8CE
:100FB000F883206928B12E465FF0000584F83C8054
:100FC0000EE00026FAE78021204600F0F3FAA0B9EF
:100FD000AEB116F8010B21684860E08C401EE08439
:100FE000E08C4B464FF0000200970028EBD14FF009
:100FF0004001204600F0DEFA30B10320D7E735F893
:10100000020BC0F30800E6E7202084F83D00002032
:10101000CDE70220CBE7FEE770B586B01421684625
:10102000FFF70CF91D480024016841F080010160C0
:10103000016801F080010591016841F00101016042
:101040000068174E00F00100059001221021304683
:10105000FFF751FA0022A0213046FFF74CFA10208A
:101060000125CDE900050320CDE90240694630465F
:10107000FFF74CF9A0200090CDE9015469463046B5
:101080000394FFF743F94020CDE900046946304658
:101090000294FFF73BF906B070BD00003038024003
:1010A000000002401FB500211148009101910291FA
:1010B0000E4A039102605322C0E901214FF6FF72EC
:1010C000C0E9032180218161FFF772FD08B1FFF7BC
:1010D00009F94FF48050009069460548FFF7B4FDC8
:1010E000002801D0FFF7FEF81FBD000000400140BE
:1010F000140000200C4810B50A4901604FF4E1319A
:101100004160002181600C22C160C0E9041281614C
:10111000C161FFF7BFFE002803D0BDE81040FFF714
:10112000E1B810BD001001405C000020FEE7FEE7C2
:10113000044B08B1012200E0002220211846FFF7ED
:10114000DAB9000000000240044B08B1012200E0BF
:10115000002210211846FFF7CEB90000000002401F
:10116000044B08B1012200E0002280211846FFF75D
:10117000C2B90000000002402DE9F04733488178F1
:101180005A294FD1C278012121EA0204824603463E
:10119000D2430930C2F3401C4474C2F3C0048474C7
:1011A000C2F30014C47280F809C0C2F3801880F83A
:1011B0000C80C2F3C017A14687721C79A1438171CC
:1011C000E143C1F340040472C1F380044471C1F3EC
:1011D000C004C471C1F30016C1F34015C673C1F356
:1011E000801445730474C1F3C01181739AF80130FF
:1011F000412B19D05146732B14D1C2F34003C37451
:10120000C2F380020275CA79803AC2700A7AD24368
:10121000803202714A79803A42709AF80610C943C6
:1012200080318170BDE8F087ACEB0702C2EBC212DF
:10123000C270A9EB0802C2EBC212691A0271C1EBBB
:10124000C1114170311BC1EBC111EAE7A0000020C0
:10125000002000BF401CBF28FBDB704770B5002694
:1012600004463546E00700D00120FFF779FF640807
:101270000120FFF75DFFFFF7EBFF0020FFF758FFAE
:10128000760800F00FF846EAC010C6B2FFF7E0FF9C
:101290000120FFF74DFFFFF7DBFF6D1C082DE1DBA1
:1012A000304670BD40210148FFF720B900000240E0
:1012B00070B50020FFF748FF0120FFF7CFFF0A4D70
:1012C00028704220FFF7CAFF68700224FF20FFF752
:1012D000C5FF2855641C092CF8DB0120FFF734FFFB
:1012E000BDE87040FFF748BFA0000020704770477E
:1012F000FFF70CB930B593B030216846FEF79EFF7A
:1013000014210CA8FEF79AFF1D480025016841F042
:1013100080510160006800F0805011901948016808
:1013200021F4404141F4004101600068022400F4CE
:101330004040119001200090000401908001CDE90F
:10134000064019200890A820CDE9090404200B903C
:101350006846FFF761FA08B172B6FEE70CA90F20E4
:1013600081E831004FF48050CDE90F0502210CA82F
:10137000FFF766F9002801D072B6FEE713B030BD62
:1013800040380240007000400248016841F470019A
:101390000160704788ED00E00148FFF7C4BC000021
:1013A00014000020F0B502681D4B1E4C9F031E4D1B
:1013B0001E4E984207D0B84205D0A04203D0A842A2
:1013C00001D0B04204D122F0700C4A6842EA0C020B
:1013D000984210D0B8420ED0A0420CD0A8420AD0F9
:1013E000B04208D0124CA04205D0124CA04202D00C
:1013F000114CA04203D122F44074CA6822434C69C4
:1014000022F08002224302608A68C2620A68826215
:10141000984201D10969016301214161F0BD0000D9
:10142000000001400004004000080040000C0040A3
:1014300000400140004401400048014010B584686C
:1014400042EA032224F47F440A432243826010BD0F
:10145000826822F070020A4342F0070181607047FF
:1014600010B5036A046A24F001040462846924F05C
:10147000F00444EA021423F00A020A43846102627F
:1014800010BD10B5036A23F0100303628369046A78
:1014900023F4704343EA023224F0A00343EA01112B
:1014A0008261016210BD000070B5044600680169E8
:1014B000E26821F44051114301612169A068E269A9
:1014C00008436169114308432168CA6849F20C6303
:1014D0009A430243CA6020684169A26921F44071BD
:1014E0001143416131492068884202D03049884225
:1014F00002D1FFF74FF901E0FFF73CF9E269002361
:10150000192164253226B2F5004F626828D0A0FB6D
:101510000101930F9200FEF759FE0146B0FBF5F072
:101520006FF01802504301EB800006EB0010B0FB97
:10153000F5F000F0F002B1FBF5F002EB0012B1FBA8
:10154000F5F06FF01803584301EB800006EB001034
:10155000B0FBF5F000F00F0021681044886070BD0A
:10156000A0FB010192185B41FEF730FE0146B0FB83
:10157000F5F00201B1FBF5F06FF01803584301EBF1
:10158000800006EBC000B0FBF5F000F0F80002EBC5
:101590004002B1FBF5F0584301EB800006EBC000C0
:1015A000B0FBF5F000F00700D6E7000000100140A6
:1015B000001401402DE9F041984617460E460446B6
:1015C000069D27E0681C25D02DB1FEF799FFA0EB02
:1015D0000800A8421ED920680C3050E8001F21F4F2
:1015E000D07140E80012002AF5D12068143050E88C
:1015F000001F21F0010140E80012002AF5D120204F
:1016000084F83D0084F83E00002084F83C0003206C
:10161000BDE8F0812068006836EA000004D00020B0
:10162000B842CFD00020F3E70120F9E7FEE7000041
:101630000FB4054B10B503A9044A029800F028F82E
:1016400010BC5DF814FB0000E51700081000002036
:101650000907090E002804DB00F1E02080F80014DF
:10166000704700F00F0000F1E02080F8141D704773
:1016700002E008C8121F08C1002AFAD1704770475B
:10168000002001E001C1121F002AFBD170470000B9
:101690002DE9FF4F89B09B460446002506E025282A
:1016A0000BD05A460B999047641C6D1C207800287B
:1016B000F5D10DB02846BDE8F08F0027B8460122CD
:1016C000474900E0074314F8013F203B02FA03F0CA
:1016D0000842F7D120782E2819D114F8010F47F0CD
:1016E00004072A280ED06FF02F022078A0F13001D5
:1016F00009290CD808EB880102EB410100EB010835
:10170000641CF2E70A98641C50F8048B0A90207855
:101710000028CED0642808D0692806D075281ED0AD
:101720005A460B9990476D1C58E00A994FF00A09E8
:1017300001C90A91002802DA40422D2102E0390550
:1017400004D52B218DF82010012103E0F90704D0E6
:101750002021F7E78A4608AE0DE00021FAE70A9952
:101760004FF00A0901C90A91F7E74946FEF771FDF2
:10177000303106F8011D0028F7D1ADEB060000F16D
:101780002009780701D44FF00108C84502DDA8EB15
:10179000090000E000208046002706E008A85A461D
:1017A000C05D0B9990476D1C7F1C5745F6DB04E02C
:1017B00030205A460B9990476D1CB8F10001A8F1F2
:1017C0000108F5DC05E016F8010B5A460B99904725
:1017D0006D1CB9F10001A9F10109F4DC641C65E795
:1017E0000928010013B54FF6FF730122694602482C
:1017F000FFF7B8FB00981CBD5C00002008B5FEF7A1
:101800008DFEFFF777FDFFF707FCFFF773FCFFF78F
:1018100049FC094CFFF74CFD94F90200009094F943
:10182000013094F9042094F9031004A0FFF700FF9D
:101830000A20FEF759FDEDE7A90000204C583A2593
:1018400064204C593A25642052583A256420525954
:101850003A25640D0A0000000000000000000000AE
:101860000102030406070809000000000102030446
:1018700090180008000000201400000070160008F6
:10188000A418000814000020AC0400008016000812
:101890000100000010000000000000000024F4001F
:0418A0000000000044
:040000050800019559
:00000001FF
